S00F000030315F44656D6F2E73726563D0
S11300000C9438000C9442000C9442000C9442006E
S11300100C9442000C9442000C9442000C94420054
S11300200C9442000C9442000C9442000C94420044
S11300300C9442000C9442000C9442000C94420034
S11300400C9442000C9442000C9442000C94420024
S11300500C9442000C9442000C9442000C94420014
S11300600C9442000C9442000C9442000C94420004
S113007011241FBECFEFD0E1DEBFCDBF0E946D00C3
S11300800C94A0000C940000CF93DF931F92CDB783
S1130090DEB76983DC011496ED91FC911597898193
S11300A080830F90DF91CF910895CF93DF93DC018C
S11300B0ED91FC91119712960D90BC91A02D2C916D
S11300C081E090E002C0880F991F6A95E2F78223CD
S11300D080958083DF91CF910895CF93DF9300D0F3
S11300E000D000D0CDB7DEB785E290E09A83898353
S11300F083E290E09C838B8384E290E09E838D83F3
S11301006FEFCE0101960E94440084EF91E00E94BB
S1130110900060E070E0CE0101960E945500F5CF9A
S1130120009769F020E030E0EFE9FFE03197F1F764
S113013000C000002F5F3F4F82179307A9F708956F
S1070140F894FFCF5D
S9030000FC
